{
	"data": {
		"bytecode": {
			"linkReferences": {},
			"object": "608060405234801561001057600080fd5b506107da806100206000396000f3fe608060405234801561001057600080fd5b50600436106100365760003560e01c80633b3d7e561461003b578063fb8820c21461006b575b600080fd5b610055600480360381019061005091906101f8565b610087565b60405161006291906102b5565b60405180910390f35b6100856004803603810190610080919061040c565b61012c565b005b60606001600083815260200190815260200160002080546100a7906104c6565b80601f01602080910402602001604051908101604052809291908181526020018280546100d3906104c6565b80156101205780601f106100f557610100808354040283529160200191610120565b820191906000526020600020905b81548152906001019060200180831161010357829003601f168201915b50505050509050919050565b600080600085815260200190815260200160002060006101000a81548160ff02191690836003811115610162576101616104f7565b5b02179055508060026000858152602001908152602001600020908161018791906106d2565b50816001600085815260200190815260200160002090816101a891906106d2565b50505050565b6000604051905090565b600080fd5b600080fd5b6000819050919050565b6101d5816101c2565b81146101e057600080fd5b50565b6000813590506101f2816101cc565b92915050565b60006020828403121561020e5761020d6101b8565b5b600061021c848285016101e3565b91505092915050565b600081519050919050565b600082825260208201905092915050565b60005b8381101561025f578082015181840152602081019050610244565b60008484015250505050565b6000601f19601f8301169050919050565b600061028782610225565b6102918185610230565b93506102a1818560208601610241565b6102aa8161026b565b840191505092915050565b600060208201905081810360008301526102cf818461027c565b905092915050565b600080fd5b600080fd5b7f4e487b7100000000000000000000000000000000000000000000000000000000600052604160045260246000fd5b6103198261026b565b810181811067ffffffffffffffff82111715610338576103376102e1565b5b80604052505050565b600061034b6101ae565b90506103578282610310565b919050565b600067ffffffffffffffff821115610377576103766102e1565b5b6103808261026b565b9050602081019050919050565b82818337600083830152505050565b60006103af6103aa8461035c565b610341565b9050828152602081018484840111156103cb576103ca6102dc565b5b6103d684828561038d565b509392505050565b600082601f8301126103f3576103f26102d7565b5b813561040384826020860161039c565b91505092915050565b600080600060608486031215610425576104246101b8565b5b6000610433868287016101e3565b935050602084013567ffffffffffffffff811115610454576104536101bd565b5b610460868287016103de565b925050604084013567ffffffffffffffff811115610481576104806101bd565b5b61048d868287016103de565b9150509250925092565b7f4e487b7100000000000000000000000000000000000000000000000000000000600052602260045260246000fd5b600060028204905060018216806104de57607f821691505b6020821081036104f1576104f0610497565b5b50919050565b7f4e487b7100000000000000000000000000000000000000000000000000000000600052602160045260246000fd5b60008190508160005260206000209050919050565b60006020601f8301049050919050565b600082821b905092915050565b6000600883026105887fffffffffffffffffffffffffffffffffffffffffffffffffffffffffffffffff8261054b565b610592868361054b565b95508019841693508086168417925050509392505050565b6000819050919050565b60006105cf6105ca6105c5846101c2565b6105aa565b6101c2565b9050919050565b6000819050919050565b6105e9836105b4565b6105fd6105f5826105d6565b848454610558565b825550505050565b600090565b610612610605565b61061d8184846105e0565b505050565b5b818110156106415761063660008261060a565b600181019050610623565b5050565b601f8211156106865761065781610526565b6106608461053b565b8101602085101561066f578190505b61068361067b8561053b565b830182610622565b50505b505050565b600082821c905092915050565b60006106a96000198460080261068b565b1980831691505092915050565b60006106c28383610698565b9150826002028217905092915050565b6106db82610225565b67ffffffffffffffff8111156106f4576106f36102e1565b5b6106fe82546104c6565b610709828285610645565b600060209050601f83116001811461073c576000841561072a578287015190505b61073485826106b6565b86555061079c565b601f19841661074a86610526565b60005b828110156107725784890151825560018201915060208501945060208101905061074d565b8683101561078f578489015161078b601f891682610698565b8355505b6001600288020188555050505b50505050505056fea2646970667358221220f4b995e26f5483666c1823d165cd44cca64c7297e896b856feb24b1437b86b2664736f6c63430008120033",
			"opcodes": "PUSH1 0x80 PUSH1 0x40 MSTORE CALLVALUE DUP1 ISZERO PUSH2 0x10 JUMPI PUSH1 0x0 DUP1 REVERT JUMPDEST POP PUSH2 0x7DA DUP1 PUSH2 0x20 PUSH1 0x0 CODECOPY PUSH1 0x0 RETURN INVALID PUSH1 0x80 PUSH1 0x40 MSTORE CALLVALUE DUP1 ISZERO PUSH2 0x10 JUMPI PUSH1 0x0 DUP1 REVERT JUMPDEST POP PUSH1 0x4 CALLDATASIZE LT PUSH2 0x36 JUMPI PUSH1 0x0 CALLDATALOAD PUSH1 0xE0 SHR DUP1 PUSH4 0x3B3D7E56 EQ PUSH2 0x3B JUMPI DUP1 PUSH4 0xFB8820C2 EQ PUSH2 0x6B JUMPI JUMPDEST PUSH1 0x0 DUP1 REVERT JUMPDEST PUSH2 0x55 PUSH1 0x4 DUP1 CALLDATASIZE SUB DUP2 ADD SWAP1 PUSH2 0x50 SWAP2 SWAP1 PUSH2 0x1F8 JUMP JUMPDEST PUSH2 0x87 JUMP JUMPDEST PUSH1 0x40 MLOAD PUSH2 0x62 SWAP2 SWAP1 PUSH2 0x2B5 JUMP JUMPDEST PUSH1 0x40 MLOAD DUP1 SWAP2 SUB SWAP1 RETURN JUMPDEST PUSH2 0x85 PUSH1 0x4 DUP1 CALLDATASIZE SUB DUP2 ADD SWAP1 PUSH2 0x80 SWAP2 SWAP1 PUSH2 0x40C JUMP JUMPDEST PUSH2 0x12C JUMP JUMPDEST STOP JUMPDEST PUSH1 0x60 PUSH1 0x1 PUSH1 0x0 DUP4 DUP2 MSTORE PUSH1 0x20 ADD SWAP1 DUP2 MSTORE PUSH1 0x20 ADD PUSH1 0x0 KECCAK256 DUP1 SLOAD PUSH2 0xA7 SWAP1 PUSH2 0x4C6 JUMP JUMPDEST DUP1 PUSH1 0x1F ADD PUSH1 0x20 DUP1 SWAP2 DIV MUL PUSH1 0x20 ADD PUSH1 0x40 MLOAD SWAP1 DUP2 ADD PUSH1 0x40 MSTORE DUP1 SWAP3 SWAP2 SWAP1 DUP2 DUP2 MSTORE PUSH1 0x20 ADD DUP3 DUP1 SLOAD PUSH2 0xD3 SWAP1 PUSH2 0x4C6 JUMP JUMPDEST DUP1 ISZERO PUSH2 0x120 JUMPI DUP1 PUSH1 0x1F LT PUSH2 0xF5 JUMPI PUSH2 0x100 DUP1 DUP4 SLOAD DIV MUL DUP4 MSTORE SWAP2 PUSH1 0x20 ADD SWAP2 PUSH2 0x120 JUMP JUMPDEST DUP3 ADD SWAP2 SWAP1 PUSH1 0x0 MSTORE PUSH1 0x20 PUSH1 0x0 KECCAK256 SWAP1 JUMPDEST DUP2 SLOAD DUP2 MSTORE SWAP1 PUSH1 0x1 ADD SWAP1 PUSH1 0x20 ADD DUP1 DUP4 GT PUSH2 0x103 JUMPI DUP3 SWAP1 SUB PUSH1 0x1F AND DUP3 ADD SWAP2 JUMPDEST POP POP POP POP POP SWAP1 POP SWAP2 SWAP1 POP JUMP JUMPDEST PUSH1 0x0 DUP1 PUSH1 0x0 DUP6 DUP2 MSTORE PUSH1 0x20 ADD SWAP1 DUP2 MSTORE PUSH1 0x20 ADD PUSH1 0x0 KECCAK256 PUSH1 0x0 PUSH2 0x100 EXP DUP2 SLOAD DUP2 PUSH1 0xFF MUL NOT AND SWAP1 DUP4 PUSH1 0x3 DUP2 GT ISZERO PUSH2 0x162 JUMPI PUSH2 0x161 PUSH2 0x4F7 JUMP JUMPDEST JUMPDEST MUL OR SWAP1 SSTORE POP DUP1 PUSH1 0x2 PUSH1 0x0 DUP6 DUP2 MSTORE PUSH1 0x20 ADD SWAP1 DUP2 MSTORE PUSH1 0x20 ADD PUSH1 0x0 KECCAK256 SWAP1 DUP2 PUSH2 0x187 SWAP2 SWAP1 PUSH2 0x6D2 JUMP JUMPDEST POP DUP2 PUSH1 0x1 PUSH1 0x0 DUP6 DUP2 MSTORE PUSH1 0x20 ADD SWAP1 DUP2 MSTORE PUSH1 0x20 ADD PUSH1 0x0 KECCAK256 SWAP1 DUP2 PUSH2 0x1A8 SWAP2 SWAP1 PUSH2 0x6D2 JUMP JUMPDEST POP POP POP POP JUMP JUMPDEST PUSH1 0x0 PUSH1 0x40 MLOAD SWAP1 POP SWAP1 JUMP JUMPDEST PUSH1 0x0 DUP1 REVERT JUMPDEST PUSH1 0x0 DUP1 REVERT JUMPDEST PUSH1 0x0 DUP2 SWAP1 POP SWAP2 SWAP1 POP JUMP JUMPDEST PUSH2 0x1D5 DUP2 PUSH2 0x1C2 JUMP JUMPDEST DUP2 EQ PUSH2 0x1E0 JUMPI PUSH1 0x0 DUP1 REVERT JUMPDEST POP JUMP JUMPDEST PUSH1 0x0 DUP2 CALLDATALOAD SWAP1 POP PUSH2 0x1F2 DUP2 PUSH2 0x1CC JUMP JUMPDEST SWAP3 SWAP2 POP POP JUMP JUMPDEST PUSH1 0x0 PUSH1 0x20 DUP3 DUP5 SUB SLT ISZERO PUSH2 0x20E JUMPI PUSH2 0x20D PUSH2 0x1B8 JUMP JUMPDEST JUMPDEST PUSH1 0x0 PUSH2 0x21C DUP5 DUP3 DUP6 ADD PUSH2 0x1E3 JUMP JUMPDEST SWAP2 POP POP SWAP3 SWAP2 POP POP JUMP JUMPDEST PUSH1 0x0 DUP2 MLOAD SWAP1 POP SWAP2 SWAP1 POP JUMP JUMPDEST PUSH1 0x0 DUP3 DUP3 MSTORE PUSH1 0x20 DUP3 ADD SWAP1 POP SWAP3 SWAP2 POP POP JUMP JUMPDEST PUSH1 0x0 JUMPDEST DUP4 DUP2 LT ISZERO PUSH2 0x25F JUMPI DUP1 DUP3 ADD MLOAD DUP2 DUP5 ADD MSTORE PUSH1 0x20 DUP2 ADD SWAP1 POP PUSH2 0x244 JUMP JUMPDEST PUSH1 0x0 DUP5 DUP5 ADD MSTORE POP POP POP POP JUMP JUMPDEST PUSH1 0x0 PUSH1 0x1F NOT PUSH1 0x1F DUP4 ADD AND SWAP1 POP SWAP2 SWAP1 POP JUMP JUMPDEST PUSH1 0x0 PUSH2 0x287 DUP3 PUSH2 0x225 JUMP JUMPDEST PUSH2 0x291 DUP2 DUP6 PUSH2 0x230 JUMP JUMPDEST SWAP4 POP PUSH2 0x2A1 DUP2 DUP6 PUSH1 0x20 DUP7 ADD PUSH2 0x241 JUMP JUMPDEST PUSH2 0x2AA DUP2 PUSH2 0x26B JUMP JUMPDEST DUP5 ADD SWAP2 POP POP SWAP3 SWAP2 POP POP JUMP JUMPDEST PUSH1 0x0 PUSH1 0x20 DUP3 ADD SWAP1 POP DUP2 DUP2 SUB PUSH1 0x0 DUP4 ADD MSTORE PUSH2 0x2CF DUP2 DUP5 PUSH2 0x27C JUMP JUMPDEST SWAP1 POP SWAP3 SWAP2 POP POP JUMP JUMPDEST PUSH1 0x0 DUP1 REVERT JUMPDEST PUSH1 0x0 DUP1 REVERT JUMPDEST PUSH32 0x4E487B7100000000000000000000000000000000000000000000000000000000 PUSH1 0x0 MSTORE PUSH1 0x41 PUSH1 0x4 MSTORE PUSH1 0x24 PUSH1 0x0 REVERT JUMPDEST PUSH2 0x319 DUP3 PUSH2 0x26B JUMP JUMPDEST DUP2 ADD DUP2 DUP2 LT PUSH8 0xFFFFFFFFFFFFFFFF DUP3 GT OR ISZERO PUSH2 0x338 JUMPI PUSH2 0x337 PUSH2 0x2E1 JUMP JUMPDEST JUMPDEST DUP1 PUSH1 0x40 MSTORE POP POP POP JUMP JUMPDEST PUSH1 0x0 PUSH2 0x34B PUSH2 0x1AE JUMP JUMPDEST SWAP1 POP PUSH2 0x357 DUP3 DUP3 PUSH2 0x310 JUMP JUMPDEST SWAP2 SWAP1 POP JUMP JUMPDEST PUSH1 0x0 PUSH8 0xFFFFFFFFFFFFFFFF DUP3 GT ISZERO PUSH2 0x377 JUMPI PUSH2 0x376 PUSH2 0x2E1 JUMP JUMPDEST JUMPDEST PUSH2 0x380 DUP3 PUSH2 0x26B JUMP JUMPDEST SWAP1 POP PUSH1 0x20 DUP2 ADD SWAP1 POP SWAP2 SWAP1 POP JUMP JUMPDEST DUP3 DUP2 DUP4 CALLDATACOPY PUSH1 0x0 DUP4 DUP4 ADD MSTORE POP POP POP JUMP JUMPDEST PUSH1 0x0 PUSH2 0x3AF PUSH2 0x3AA DUP5 PUSH2 0x35C JUMP JUMPDEST PUSH2 0x341 JUMP JUMPDEST SWAP1 POP DUP3 DUP2 MSTORE PUSH1 0x20 DUP2 ADD DUP5 DUP5 DUP5 ADD GT ISZERO PUSH2 0x3CB JUMPI PUSH2 0x3CA PUSH2 0x2DC JUMP JUMPDEST JUMPDEST PUSH2 0x3D6 DUP5 DUP3 DUP6 PUSH2 0x38D JUMP JUMPDEST POP SWAP4 SWAP3 POP POP POP JUMP JUMPDEST PUSH1 0x0 DUP3 PUSH1 0x1F DUP4 ADD SLT PUSH2 0x3F3 JUMPI PUSH2 0x3F2 PUSH2 0x2D7 JUMP JUMPDEST JUMPDEST DUP2 CALLDATALOAD PUSH2 0x403 DUP5 DUP3 PUSH1 0x20 DUP7 ADD PUSH2 0x39C JUMP JUMPDEST SWAP2 POP POP SWAP3 SWAP2 POP POP JUMP JUMPDEST PUSH1 0x0 DUP1 PUSH1 0x0 PUSH1 0x60 DUP5 DUP7 SUB SLT ISZERO PUSH2 0x425 JUMPI PUSH2 0x424 PUSH2 0x1B8 JUMP JUMPDEST JUMPDEST PUSH1 0x0 PUSH2 0x433 DUP7 DUP3 DUP8 ADD PUSH2 0x1E3 JUMP JUMPDEST SWAP4 POP POP PUSH1 0x20 DUP5 ADD CALLDATALOAD PUSH8 0xFFFFFFFFFFFFFFFF DUP2 GT ISZERO PUSH2 0x454 JUMPI PUSH2 0x453 PUSH2 0x1BD JUMP JUMPDEST JUMPDEST PUSH2 0x460 DUP7 DUP3 DUP8 ADD PUSH2 0x3DE JUMP JUMPDEST SWAP3 POP POP PUSH1 0x40 DUP5 ADD CALLDATALOAD PUSH8 0xFFFFFFFFFFFFFFFF DUP2 GT ISZERO PUSH2 0x481 JUMPI PUSH2 0x480 PUSH2 0x1BD JUMP JUMPDEST JUMPDEST PUSH2 0x48D DUP7 DUP3 DUP8 ADD PUSH2 0x3DE JUMP JUMPDEST SWAP2 POP POP SWAP3 POP SWAP3 POP SWAP3 JUMP JUMPDEST PUSH32 0x4E487B7100000000000000000000000000000000000000000000000000000000 PUSH1 0x0 MSTORE PUSH1 0x22 PUSH1 0x4 MSTORE PUSH1 0x24 PUSH1 0x0 REVERT JUMPDEST PUSH1 0x0 PUSH1 0x2 DUP3 DIV SWAP1 POP PUSH1 0x1 DUP3 AND DUP1 PUSH2 0x4DE JUMPI PUSH1 0x7F DUP3 AND SWAP2 POP JUMPDEST PUSH1 0x20 DUP3 LT DUP2 SUB PUSH2 0x4F1 JUMPI PUSH2 0x4F0 PUSH2 0x497 JUMP JUMPDEST JUMPDEST POP SWAP2 SWAP1 POP JUMP JUMPDEST PUSH32 0x4E487B7100000000000000000000000000000000000000000000000000000000 PUSH1 0x0 MSTORE PUSH1 0x21 PUSH1 0x4 MSTORE PUSH1 0x24 PUSH1 0x0 REVERT JUMPDEST PUSH1 0x0 DUP2 SWAP1 POP DUP2 PUSH1 0x0 MSTORE PUSH1 0x20 PUSH1 0x0 KECCAK256 SWAP1 POP SWAP2 SWAP1 POP JUMP JUMPDEST PUSH1 0x0 PUSH1 0x20 PUSH1 0x1F DUP4 ADD DIV SWAP1 POP SWAP2 SWAP1 POP JUMP JUMPDEST PUSH1 0x0 DUP3 DUP3 SHL SWAP1 POP SWAP3 SWAP2 POP POP JUMP JUMPDEST PUSH1 0x0 PUSH1 0x8 DUP4 MUL PUSH2 0x588 PUSH32 0xFFFFFFFFFFFFFFFFFFFFFFFFFFFFFFFFFFFFFFFFFFFFFFFFFFFFFFFFFFFFFFFF DUP3 PUSH2 0x54B JUMP JUMPDEST PUSH2 0x592 DUP7 DUP4 PUSH2 0x54B JUMP JUMPDEST SWAP6 POP DUP1 NOT DUP5 AND SWAP4 POP DUP1 DUP7 AND DUP5 OR SWAP3 POP POP POP SWAP4 SWAP3 POP POP POP JUMP JUMPDEST PUSH1 0x0 DUP2 SWAP1 POP SWAP2 SWAP1 POP JUMP JUMPDEST PUSH1 0x0 PUSH2 0x5CF PUSH2 0x5CA PUSH2 0x5C5 DUP5 PUSH2 0x1C2 JUMP JUMPDEST PUSH2 0x5AA JUMP JUMPDEST PUSH2 0x1C2 JUMP JUMPDEST SWAP1 POP SWAP2 SWAP1 POP JUMP JUMPDEST PUSH1 0x0 DUP2 SWAP1 POP SWAP2 SWAP1 POP JUMP JUMPDEST PUSH2 0x5E9 DUP4 PUSH2 0x5B4 JUMP JUMPDEST PUSH2 0x5FD PUSH2 0x5F5 DUP3 PUSH2 0x5D6 JUMP JUMPDEST DUP5 DUP5 SLOAD PUSH2 0x558 JUMP JUMPDEST DUP3 SSTORE POP POP POP POP JUMP JUMPDEST PUSH1 0x0 SWAP1 JUMP JUMPDEST PUSH2 0x612 PUSH2 0x605 JUMP JUMPDEST PUSH2 0x61D DUP2 DUP5 DUP5 PUSH2 0x5E0 JUMP JUMPDEST POP POP POP JUMP JUMPDEST JUMPDEST DUP2 DUP2 LT ISZERO PUSH2 0x641 JUMPI PUSH2 0x636 PUSH1 0x0 DUP3 PUSH2 0x60A JUMP JUMPDEST PUSH1 0x1 DUP2 ADD SWAP1 POP PUSH2 0x623 JUMP JUMPDEST POP POP JUMP JUMPDEST PUSH1 0x1F DUP3 GT ISZERO PUSH2 0x686 JUMPI PUSH2 0x657 DUP2 PUSH2 0x526 JUMP JUMPDEST PUSH2 0x660 DUP5 PUSH2 0x53B JUMP JUMPDEST DUP2 ADD PUSH1 0x20 DUP6 LT ISZERO PUSH2 0x66F JUMPI DUP2 SWAP1 POP JUMPDEST PUSH2 0x683 PUSH2 0x67B DUP6 PUSH2 0x53B JUMP JUMPDEST DUP4 ADD DUP3 PUSH2 0x622 JUMP JUMPDEST POP POP JUMPDEST POP POP POP JUMP JUMPDEST PUSH1 0x0 DUP3 DUP3 SHR SWAP1 POP SWAP3 SWAP2 POP POP JUMP JUMPDEST PUSH1 0x0 PUSH2 0x6A9 PUSH1 0x0 NOT DUP5 PUSH1 0x8 MUL PUSH2 0x68B JUMP JUMPDEST NOT DUP1 DUP4 AND SWAP2 POP POP SWAP3 SWAP2 POP POP JUMP JUMPDEST PUSH1 0x0 PUSH2 0x6C2 DUP4 DUP4 PUSH2 0x698 JUMP JUMPDEST SWAP2 POP DUP3 PUSH1 0x2 MUL DUP3 OR SWAP1 POP SWAP3 SWAP2 POP POP JUMP JUMPDEST PUSH2 0x6DB DUP3 PUSH2 0x225 JUMP JUMPDEST PUSH8 0xFFFFFFFFFFFFFFFF DUP2 GT ISZERO PUSH2 0x6F4 JUMPI PUSH2 0x6F3 PUSH2 0x2E1 JUMP JUMPDEST JUMPDEST PUSH2 0x6FE DUP3 SLOAD PUSH2 0x4C6 JUMP JUMPDEST PUSH2 0x709 DUP3 DUP3 DUP6 PUSH2 0x645 JUMP JUMPDEST PUSH1 0x0 PUSH1 0x20 SWAP1 POP PUSH1 0x1F DUP4 GT PUSH1 0x1 DUP2 EQ PUSH2 0x73C JUMPI PUSH1 0x0 DUP5 ISZERO PUSH2 0x72A JUMPI DUP3 DUP8 ADD MLOAD SWAP1 POP JUMPDEST PUSH2 0x734 DUP6 DUP3 PUSH2 0x6B6 JUMP JUMPDEST DUP7 SSTORE POP PUSH2 0x79C JUMP JUMPDEST PUSH1 0x1F NOT DUP5 AND PUSH2 0x74A DUP7 PUSH2 0x526 JUMP JUMPDEST PUSH1 0x0 JUMPDEST DUP3 DUP2 LT ISZERO PUSH2 0x772 JUMPI DUP5 DUP10 ADD MLOAD DUP3 SSTORE PUSH1 0x1 DUP3 ADD SWAP2 POP PUSH1 0x20 DUP6 ADD SWAP5 POP PUSH1 0x20 DUP2 ADD SWAP1 POP PUSH2 0x74D JUMP JUMPDEST DUP7 DUP4 LT ISZERO PUSH2 0x78F JUMPI DUP5 DUP10 ADD MLOAD PUSH2 0x78B PUSH1 0x1F DUP10 AND DUP3 PUSH2 0x698 JUMP JUMPDEST DUP4 SSTORE POP JUMPDEST PUSH1 0x1 PUSH1 0x2 DUP9 MUL ADD DUP9 SSTORE POP POP POP JUMPDEST POP POP POP POP POP POP JUMP INVALID LOG2 PUSH5 0x6970667358 0x22 SLT KECCAK256 DELEGATECALL 0xB9 SWAP6 0xE2 PUSH16 0x5483666C1823D165CD44CCA64C7297E8 SWAP7 0xB8 JUMP INVALID 0xB2 0x4B EQ CALLDATACOPY 0xB8 PUSH12 0x2664736F6C63430008120033 "
		},
		"gasEstimates": {
			"creation": {
				"codeDepositCost": "402000",
				"executionCost": "436",
				"totalCost": "402436"
			},
			"external": {
				"addTask(uint256,string,string)": "infinite",
				"viewTask(uint256)": "infinite"
			}
		},
		"methodIdentifiers": {
			"addTask(uint256,string,string)": "fb8820c2",
			"viewTask(uint256)": "3b3d7e56"
		}
	},
	"abi": [
		{
			"inputs": [
				{
					"internalType": "uint256",
					"name": "id",
					"type": "uint256"
				},
				{
					"internalType": "string",
					"name": "title",
					"type": "string"
				},
				{
					"internalType": "string",
					"name": "description",
					"type": "string"
				}
			],
			"name": "addTask",
			"outputs": [],
			"stateMutability": "nonpayable",
			"type": "function"
		},
		{
			"inputs": [
				{
					"internalType": "uint256",
					"name": "id",
					"type": "uint256"
				}
			],
			"name": "viewTask",
			"outputs": [
				{
					"internalType": "string",
					"name": "",
					"type": "string"
				}
			],
			"stateMutability": "view",
			"type": "function"
		}
	]
}